:100000000C943E000C945B000C945B000C945B0021
:100010000C945B000C945B000C945D000C945B00F2
:100020000C9484000C945B000C94C0000C945B0056
:100030000C945B000C94CF000C945B000C945B0060
:100040000C945B000C945B000C945B000C945B00C4
:100050000C9421040C945B000C945B000C945B00EA
:100060000C9481050C945B000C945B000C945B0079
:100070000C945B000C945B000C945B0011241FBE7D
:10008000CFEFCDBFDFE3DEBF18E3A0E0B8E3E0E8E9
:10009000F1E202C005900D92AC35B107D9F728E323
:1000A000ACE5B8E301C01D92A53FB207E1F70E949D
:1000B0001F010C94B7100C9400001F920F920FB602
:1000C0000F9211242F933F934F935F936F937F93DE
:1000D0008F939F93AF93BF93EF93FF930E9401047D
:1000E00082E080934301FF91EF91BF91AF919F9187
:1000F0008F917F916F915F914F913F912F910F90D1
:100100000FBE0F901F9018951F920F920FB60F926F
:1001100011248F939F9380915C38811106C02B9A94
:100120002C9A2D9A499A4A9A4B9A90915F3889173E
:1001300008F02B9890916038891708F02C989091CE
:100140006138891708F02D9890916238891708F066
:10015000499890916338891708F04A9890916438CB
:10016000891708F04B988F5F80935C3881E080930B
:100170000B0A9F918F910F900FBE0F901F901895B3
:100180001F920F920FB60F9211248F9380E18093EC
:100190000B0A8F910F900FBE0F901F9018951F9212
:1001A0000F920FB60F9211248F939F9380915D3819
:1001B00090915E38019680935D3890935E3881E02F
:1001C0008093460A9F918F910F900FBE0F901F90C2
:1001D000189508950E94DA0480937B380C94EC04FF
:1001E0000E94DA0480937A380C94EC0480910438ED
:1001F000853011F480E001C08F5F0E94DD0485E04E
:10020000809304380C94EC04089586EF90E00E94EB
:10021000000580EF90E00E940D058AEE90E00E94BC
:100220001A0584E091E00E94270589EE90E00E9483
:10023000340589EE90E00E94A5050C94EA040E9422
:1002400099040E9463030E94050178942B9A2FE37E
:100250008DE093E0215080409040E1F700C0000025
:100260002C9A2FE38DE093E0215080409040E1F7FD
:1002700000C000002D9A2FE38DE093E021508040D4
:100280009040E1F700C00000499A2FE38DE093E031
:10029000215080409040E1F700C000004A9A2FE3CF
:1002A0008DE093E0215080409040E1F700C00000D5
:1002B0004B9A2FEF84E39CE0215080409040E1F77F
:1002C00000C000002B982FE38DE093E02150804088
:1002D0009040E1F700C000002C982FE38DE093E000
:1002E000215080409040E1F700C000002D982FE39E
:1002F0008DE093E0215080409040E1F700C0000085
:1003000049982FE38DE093E0215080409040E1F741
:1003100000C000004A982FE38DE093E02150804018
:100320009040E1F700C000004B982FE38DE093E090
:10033000215080409040E1F700C000000E94BC05C1
:100340008EE080935F38809360388093613880932B
:1003500062388093633880936438712C912C54E612
:10036000E52EC0E000E0D0E0812CF12C6EE0662E9E
:1003700078EB572EEEE0DE2E18EBF8EBAF2EB12C1B
:10038000A4E04A2EB3E03B2E82E0282E0E94CC034C
:10039000C090703821E0C2129CC080E090E00E94C2
:1003A000120487FF05C0C0926538CC24C3940FC0E7
:1003B00080916538882351F010926538C092663874
:1003C00010920438D1E0C12CF12C01C0C12C81E085
:1003D00090E00E94120487FF06C081E08093673896
:1003E000CC24C3940EC080916738882351F01092BA
:1003F000673881E08093683880930438D1E0FF2427
:10040000F39482E090E00E94120487FF06C081E02E
:1004100080936938CC24C3940EC0809169388823B6
:1004200051F01092693881E080936A382092043844
:10043000D1E042E0F42E83E090E00E94120487FFB6
:1004400006C081E080936B38CC24C3940EC08091A9
:100450006B38882351F010926B3881E080936C38B0
:1004600030920438D1E033E0F32E84E090E00E9433
:10047000120487FF04C081E080936D3816C080911C
:100480006D38882361F010926D3881E080936E386A
:1004900040920438C11006C024E0F22E1CC0C110E6
:1004A00004C017C0D1E094E0F92E10935F38109388
:1004B00060381093613810936238109363388FE777
:1004C00098E321E0815090402040E1F700C0000017
:1004D000E5C0DD23D9F0D0925F38D0926038D09259
:1004E0006138D0926238D0926338D09264388F10DD
:1004F00009C0E69487E0F82C912C8E1528F084E64C
:10050000E82E02C08F2C912CC0E000E092E0F9169A
:1005100009F455C09F1530F0FF2069F021E0F21674
:1005200049F1BBC083E0F81609F45FC094E0F91606
:1005300009F489C0B2C0C111AFC0013091F060F0C0
:10054000023009F0AAC010926038109263381093FC
:100550006138109362389DC01092613810926238F1
:1005600086C010925F3810926438109360381093F0
:1005700063388CC0C11190C090FC1EC071100FC0B8
:10058000D0925F38D0926038D09261381093623840
:100590001093633810936438772473940DC01093CC
:1005A0005F381093603810936138D0926238D092DF
:1005B0006338D0926438712C9394CE2D6DC0C111E4
:1005C0006BC080E090E0FC01E15AF74C081302C0D8
:1005D000508201C06082019686309105A1F70F5FBD
:1005E000CE2D063008F459C055C0C11155C00E9427
:1005F0004410B5010E94D00F80935F380E944410D0
:10060000B5010E94D00F809360380E944410B5015C
:100610000E94D00F809361380E944410B5010E945F
:10062000D00F809362380E944410B5010E94D00F11
:10063000809363380E944410B5010E94D00F8093CC
:100640006438CE2D2AC0C11127C00130B9F058F04E
:10065000023019F5109261381092623810936038A8
:100660001093633816C0109260381092633810935C
:100670005F3810936438CE2D01E00FC010925F38C0
:10068000109264381093613810936238CE2D02E0D6
:1006900004C0CE2D00E001C0C150D0E087E893E156
:1006A0000197F1F700C0000071CE81E080937138AE
:1006B00008959091410192FDFCCF90E080934A0112
:1006C00090934B0108950F931F93CF93DF9380E294
:1006D0000E94590380913004877F80933004809179
:1006E0003004887F84608093300480911704877F72
:1006F0008093170480911704887F84608093170487
:1007000080911604877F8093160480911604887F59
:1007100084608093160480911504877F809315046C
:1007200080911504887F846080931504809114045F
:10073000877F8093140480911404887F8460809361
:10074000140486E298E30E948E0E8DEB98E30E94DB
:10075000D40EC0E0D0E0BE0186E298E30E94440FD0
:10076000BE0186E298E30E94630F2196C530D10551
:1007700091F704EA18E3C0E0A8016C2F85E098E344
:100780000E944A06CF5F0B5F1F4FC530A9F7DF916C
:10079000CF911F910F910895CF938091723881303E
:1007A00051F465E573E086E298E30E94DE0E811164
:1007B00002C010927238C0917138C13001F51092A8
:1007C00071380E94570B81110AC085E098E30E949E
:1007D0006906882331F083E080936F3802C0C093AC
:1007E0006F38E0910538F0910638808187FF04C0AA
:1007F00081E08093723803C081E080937038CF919C
:1008000008958091A0388F5F823318F48093A038C8
:1008100008951092A03881E08093723882E390E0CE
:100820000C943F0626E0AC01249FC001259F900D4B
:100830001124E0910938F0910A38E80FF91F8081FE
:1008400008951F920F920FB60F9211242F933F938A
:100850004F935F936F937F938F939F93AF93BF93C8
:10086000EF93FF930E94A40FFF91EF91BF91AF917F
:100870009F918F917F916F915F914F913F912F91B8
:100880000F900FBE0F901F90189580E0089540E0E4
:1008900068ED81E690E00E94AA0580E008957894D2
:1008A00080E00895E0E1F4E0808188608193E831A0
:1008B00084E0F807C9F7E0E3F4E080818860819381
:1008C000E83384E0F807C9F7E0E5F4E08081886068
:1008D0008193E83584E0F807C9F70895029A0A98E9
:1008E000E2E1F4E08081877F808380818F7780835D
:1008F0008081887F8083A0E0B2E011968C9111976F
:10090000806111968C931197019A0998E1E1F4E0C6
:100910008081877F808380818F7780838081887FBB
:10092000808311968C911197806111968C930C9411
:10093000BB040E9452040398E3E1F4E08081877FC6
:100940008083239A2B98249A2C98259A2D98419A43
:100950004998429A4A98439A4B980E9447040E94A9
:10096000AE050E94CA050E944F040E94BA050E946B
:100970006E040C944504E0E1F8E086E4848783EE9D
:1009800081871092E7381092E8381092E938109277
:10099000EA381092EB381092EC381092E538109249
:1009A000E6381092EF381092F0381092ED3810922D
:1009B000EE38089580911D080895E0E1F8E08587FC
:1009C0008285836082870895E0E1F8E08185816017
:1009D000818708950C94E40483E080931A080895B5
:1009E000E0E1F8E08385806C838782E08287089568
:1009F000E091E938F091EA38309709F009940895C8
:100A00008093E9389093EA380895E091E738F091BF
:100A1000E838309709F0099408958093E738909367
:100A2000E8380895E091EB38F091EC38309709F010
:100A3000099408958093EB389093EC380895E091F1
:100A4000E538F091E638309709F0099408958093DD
:100A5000E5389093E6380895E091EF38F091F0385A
:100A6000309709F0099408958093EF389093F03807
:100A70000895E091ED38F091EE38309709F009943F
:100A8000089580911B0883FD0C942C0580911B0810
:100A900082FD0C94390580911B0886FF0AC0809165
:100AA0001B0880FF06C00E94120581E08093593820
:100AB000089580911B0887FF16C080911B0881FF55
:100AC00010C080911B0884FF04C08091593888238E
:100AD00031F0109259380E94F80483E00FC00C9452
:100AE000F0040C94050580911B0886FF09C08091D5
:100AF0001B0880FD05C00E941F0582E080931A0834
:100B000008951F920F920FB60F9211242F933F93C7
:100B10004F935F936F937F938F939F93AF93BF9305
:100B2000EF93FF930E944105FF91EF91BF91AF9129
:100B30009F918F917F916F915F914F913F912F91F5
:100B40000F900FBE0F901F9018958093ED389093E3
:100B5000EE380895FC0164BF4083089580914101FF
:100B60008111FCCF81E88093400182E080934201B3
:100B700080E0089580E00895E0E0FAE080E181837C
:100B800081E182878FEF90E086A397A381E0808345
:100B900080E00895E0E4FAE080E197E284879587B9
:100BA00081E0858383E0808380E00895CF92DF92A7
:100BB000FF920F931F93CF93DF93EC01AE81BF8120
:100BC000EB01CC0FDD1FC60FD71FCA0FDB1FFA804A
:100BD000FC0144815581E6E0E69F9001E79F300DDE
:100BE00011248A01020F131FF80122813381F901B8
:100BF00021813281F80104811581201B310BE881AC
:100C00002E1B3109EC01EA81FB8100811181FA017F
:100C100040E050E04017510739F146175707F9F007
:100C200012968C911297F8121AC0808185588230E2
:100C3000E8F0C480D58082819381EC0189819A811A
:100C4000C816D90660F48C199D09CC91D0E0C8175C
:100C5000D90728F48C1B9D0B2817390738F04F5FF4
:100C60005F4F13963696D6CF80E001C081E0DF91CA
:100C7000CF911F910F91FF90DF90CF900895209119
:100C8000733830917438820F931F80937338909328
:100C9000743808950097D9F041155105C1F026E048
:100CA000629FB0011124DC011496ED91FC9115971F
:100CB000E60FF71F21E0208314968D919C911597E4
:100CC000FC01E60FF71F4283538380E008958BE019
:100CD00008952F923F924F925F926F927F928F92E0
:100CE0009F92AF92BF92CF92DF92EF92FF920F93BB
:100CF0001F93CF93DF93009709F47DC3EC01A12CE0
:100D0000B12C812C912C212CD12C33E0C32E45E821
:100D1000642E56E8752E67E0362E72E0472EE8E026
:100D20005E2EEA81FB81808191818816990608F008
:100D3000A5C17501EE0CFF1C0C811D810E0D1F1D40
:100D4000D8018C91843009F4A2C038F4823001F1CA
:100D500008F049C0813059F08AC1853809F4C2C011
:100D6000863809F4F6C0873009F081C137C1D8014F
:100D70001296ED91FC91139780818E7109F069C1F3
:100D80004C928C819D81FC01EE0DFF1D518261C151
:100D9000F8012181222329F10280F381E02D253001
:100DA00020F081819281D8010EC0D80114968D91D6
:100DB0009C911597418152818417950769F04817D6
:100DC000590730F4019714968D939C93159704C09E
:100DD0000196F801848395832150D80111962C93B4
:100DE00038C1F80131C1D80114962D913C91159765
:100DF00012968D919C911397DC0111964D915C9107
:100E000012972417350709F432C18E819F8142174A
:100E10005307E0F4241B350BDC01AA0DBB1D8C919C
:100E200090E0058002C0959587950A94E2F799278E
:100E30002817390708F41BC18481882309F417C1D6
:100E4000F8013082EA81FB8124811AC0FC01EA0D9D
:100E5000FB1D421B530B808190E04817590708F493
:100E600006C18281882331F0B401CE010E94D605EB
:100E70008111FDC0E4E0D801EC93EA81FB8122817D
:100E80008C819D81FC01EE0DFF1D2183E2C0D80104
:100E900014962D913C9115971296ED91FC91139714
:100EA000818192818217930708F4D7C0EE81FF8178
:100EB000EA0DFB1D821B930B208130E028173907B8
:100EC00008F0AFC08281882331F0B401CE010E94C6
:100ED000D6058111CCC0F8018181882309F467C04F
:100EE0008150B6C0A881B981808513968C93EC811E
:100EF000FD81EE0DFF1D44815581A281B3811196C4
:100F00008D919C91129784179507C0F0AE81BF8197
:100F1000AA0DBB1D6C91262F30E011967C917F5F4E
:100F200002C0359527957A95E2F7841B950B621BD5
:100F3000262F30E02817390708F497C07082EA811D
:100F4000FB8122818C819D81FC01EE0DFF1D21839F
:100F500042C0D80114966D917C9115971296ED912F
:100F6000FC911397218132812617370758F4119687
:100F70008C911197811102C0CC9277C08150F801F9
:100F8000818373C0EE81FF81EA0DFB1D8081482FB4
:100F900050E091819F5F02C0559547959A95E2F781
:100FA000261B370B841B90E08217930760F4D8014F
:100FB0006C92EA81FB8123818C819D81FC01EE0D85
:100FC000FF1D218352C0F8018181811102C0C082BE
:100FD0004CC081508183222423943BC0D8011496B5
:100FE0002D913C91159712968D919C911397DC0150
:100FF00011968D919C9112978217930768F5281B83
:10100000390BAE81BF81AA0DBB1D8C9190E005808C
:1010100002C0959587950A94E2F799272817390712
:1010200018F4F801C0821AC0D80111968C9111975A
:1010300081110CC081E08C938C819D81FC01EE0DAF
:10104000FF1D0280F381E02DC08211C08150F801A4
:101050008183DD24D3940BC0D801CC928C819D81F7
:10106000FC01EE0DFF1D118202C022242394BFEF6C
:101070008B1A9B0AE3E0AE0EB11C53CEE881F981D6
:10108000808187FF23C040E050E020E030E0EA812B
:10109000FB81808191812817390798F4EC81FD81CB
:1010A000E40FF51FA281B3818C9180FD05C0908172
:1010B000977F11F081608C932F5F3F4F4A5F5F4FA6
:1010C000E6CFE881F98180818F778083D11007C0D6
:1010D000E881F98121106FC080818E7F6EC0EA8126
:1010E000FB8181858823A1F3E881F9818081806873
:1010F0008083EA81FB818185813051F740E050E0B7
:1011000020E030E096E0D92EEA81FB816081718198
:1011100026173707E8F60C811D81FA01EE0FFF1F35
:10112000E00FF11F8081982F977FA1F1853811F092
:101130008330B1F5EE80FF80D701A40FB51F129662
:10114000BC90BB2039F180E090E0C12C8617970756
:10115000F8F428173907D1F0D89ED001D99EB00DE8
:101160001124A00FB11FAC91A43011F0A63871F476
:10117000DC01AA0FBB1FA80FB91FAE0DBF1D129631
:10118000AC91BA1203C0CB01CC24C3940196DECF3C
:10119000C11006C00280F381E02D80818E7F05C0E2
:1011A0000280F381E02D8081816080832F5F3F4F3B
:1011B0004D5F5F4FA9CF80818160808380917338BC
:1011C00090917438E881F98121813281A9014853D5
:1011D0005F4F4817590738F4821B930BAA24A39436
:1011E000A3E0BA2E44C08217930710F080E004C138
:1011F000821B930B0197893C9105C0F3EFCF885C6C
:101200009109E881F9812181328128533F4F21835F
:1012100032832381211196C02481222311F0215091
:101220002483E881F9812581222311F0215025832F
:101230008A809B80D40116962C91169721111BC091
:101240008A809B80F4012781211148C0EA81FB81BB
:101250002381222361F020E030E0A0E0B0E0EA81C9
:10126000FB8140815181A417B50708F46EC0893C09
:10127000910528F6BBCF08811981F801248121113D
:10128000DFCFED90FC9060E070E040E050E04E1564
:101290005F05F1F0EC81FD81E60FF71F208123301F
:1012A00011F0283081F424813581C280D380D601A9
:1012B0001196CD90DC9012972C153D0520F42F5FF0
:1012C0003F4F248335834F5F5F4F6A5F7F4FDFCF90
:1012D000F4012681D80114962C93B2CF088119818C
:1012E000D80115962C912111B1CFE080F18060E0FA
:1012F00070E040E050E04E155F05F1F0EC81FD81BB
:10130000E60FF71F2081233011F0283081F424816B
:101310003581C280D380D6011196CD90DC90129792
:10132000C216D30620F421503109248335834F5F40
:101330005F4F6A5F7F4FDFCFF4012781D801159699
:101340002C9384CF2150238381CFA901440F551FB3
:10135000EC81FD81E40FF51F6081653809F047C01D
:101360006181662319F06150618341C0A0826C8164
:101370007D81FB01E40FF51F0280F381E02DB08237
:10138000EE81FF81E20FF31FD280DD2081F140E08A
:1013900050E000E010E0EA81FB8160817181061776
:1013A000170728F5EE81FF81E40FF51F6281D61241
:1013B00019C0BA01660F771FEC81FD814F01860EBF
:1013C000971EF401E280F380F701F080F0FE0AC07E
:1013D000F401A082EC81FD81E60FF71F0280F3810A
:1013E000E02DB0820F5F1F4F4D5F5F4FD4CF11963E
:1013F0002D5F3F4F34CF8BE0DF91CF911F910F9145
:10140000FF90EF90DF90CF90BF90AF909F908F9024
:101410007F906F905F904F903F902F900895CF9363
:10142000DF93E091F138F091F23825E0AC01249F90
:10143000C001259F900D1124A481B581A80FB91F6B
:1014400011968D919C9112978617970709F46BC09E
:101450008617970718F4681B790B04C09C01261B9C
:10146000370BB9010190F081E02D8281803411F4B5
:10147000769567956538710508F053C0663071053B
:1014800008F451C013968D919C911497DC01AB2FF9
:10149000BB27A295AF704A2FEC01CC27DF70CD2F70
:1014A000DD279C01207F332754E0369527955A95F8
:1014B000E1F78F70A43040F09A2F9370AD015695EC
:1014C000479556954795490F95E19C9FD0019D9F63
:1014D000B00D1124220F331F2A0F3B1F5FEC459FD5
:1014E000200D311D1124863020F02F5F3F4F855095
:1014F000FACFE381E073F0E083E0F695E7958A9513
:10150000E1F7EE58FE4580819181689FA001699FB7
:10151000500D789F500D112481E02417350720F0DD
:1015200002C081E001C080E0DF91CF9108958091F9
:10153000783890917938A091F138B091F238ED91E6
:10154000FC9111974081518125E0289FB001299F8E
:10155000700D112420E030E084179507A8F414964C
:10156000ED91FC911597E20FF31FE60FF71FE08155
:101570002B5F3F4FE0FD02C00196EECF809378389D
:101580009093793880E008951092783810927938E5
:1015900081E00895BC01E091F138F091F2389C01AE
:1015A00083E0220F331F8A95E1F7A281B381A20F56
:1015B000B31F12969C91129713968C9190932A06C2
:1015C00080932B06A281B381A20FB31F9C91119629
:1015D0008C91909326068093270695E0969FA00114
:1015E000979F500D1124A481B581A40FB51F1396A8
:1015F0008C9180931A06A481B581A40FB51F14960F
:101600008C9180931B06A481B581A40FB51F8C918A
:1016100081FD9C9384819581DC01A40FB51F8C9181
:101620008C7169F4A281B381A20FB31F1696AC919D
:10163000A295AF70B0E0A658BE458C9101C08FE373
:1016400080931C06A281B381A20FB31F14968C91C4
:101650008B3110F48C5F01C08FE180930506A2816D
:10166000B381A20FB31F17968C9180930106A281BC
:10167000B381A20FB31F15968C9182958F708093C2
:10168000190682819381FC01E20FF31F85818F701F
:10169000806180930206809118068360809318060B
:1016A00081E88093000681E08093080608952F92D8
:1016B0003F924F925F926F927F928F929F92AF92E2
:1016C000BF92CF92DF92EF92FF920F931F93CF932F
:1016D000DF93CDB7DEB72597CDBFDEBF80917738DA
:1016E000882309F4F5C20091F1381091F238209165
:1016F000F3383091F4382A833B83E12CF12CA12C70
:10170000B12C212C312C198244244A945524539411
:1017100077247394D801ED91FC91808191812816F2
:10172000390608F0D1C2AA81BB814D915D91AA838F
:10173000BB83D8011496CD90DC901597CA0CDB1CA6
:10174000D6018C918C7190E09695879596958795AA
:101750008230910509F44DC228F4009759F00197A1
:1017600011F1A7C28330910509F404C2049709F46A
:101770008CC19FC2D8011296ED91FC911397EE0D8A
:10178000FF1D96819F708781981710F4891B01C0F7
:1017900080E09A0102C0369527958A95E2F7F60116
:1017A0002183328387C2D80112968D919C91139721
:1017B000DC01AE0DBF1D9A0117960C9002C0369544
:1017C00027950A94E2F72C833D83D60111962D9339
:1017D0003C93129713968D919C9114972115B2E02A
:1017E0003B0730F02F5F31402C833D8321E008C060
:1017F00092014C815D81241B350B2C833D8320E0BD
:101800007281703449F4AC81BD81B695A795AC83E3
:10181000BD83222319F00CC0222351F08F3FBFEF6C
:101820009B0741F421E8F60120833EE0398309C09B
:10183000E1E001C0E0E04C815D814A30510508F0F3
:1018400064C0D8011496ED91FC911597EA0DFB1D2B
:10185000208126FD4FC027FD4EC0D8012D913C911F
:10186000D90113962C912370233091F4D80112964C
:10187000ED91FC911397EE0DFF1DBFE1B483D801EC
:101880001496ED91FC911597EA0DFB1DB1E130C066
:10189000223091F4D8011296ED91FC911397EE0D40
:1018A000FF1D2581207F25831496ED91FC911597CE
:1018B000EA0DFB1DB9E01CC02130E1F4D8011296FD
:1018C000ED91FC911397EE0DFF1D25812F7025835F
:1018D0001296ED91FC911397EE0DFF1D2581206569
:1018E00025831496ED91FC911597EA0DFB1DBDE043
:1018F000B08301C07082D8011496ED91FC911597C8
:10190000EA0DFB1D83839483D5C19C01232F3327CC
:1019100022952F70622FAC0144275F70F52FAC0128
:10192000407F5527A4E056954795AA95E1F78F701B
:10193000243030F063703695279536952795620FE1
:10194000E1114BC07058723010F496E00BC093E078
:1019500009C06917B0F46F5F2C813D812F5C31099C
:101960002C833D83AC81BD81A03DB10590F709C0BA
:10197000FF3069F0FF5F2C813D81255131092C83B7
:101980003D83AC81BD81569798F7FF3081F469178C
:1019900018F46F5FF5E00BC0FFE009C04F3071F045
:1019A0004F5F2C813D81225031092C833D83AC81D6
:1019B000BD81139798F74F3009F091C1FF3009F4BA
:1019C00042C0FF5F45E08BC16623B1F061502C81BE
:1019D0003D812F5C31092C833D83AC81BD81A03DCD
:1019E000B10590F709C0FF2369F0F1502C813D81CA
:1019F000255131092C833D83AC81BD81569798F7E1
:101A0000F11110C0662319F06150FAE00BC0F0E04C
:101A100009C0442369F041502C813D812250310995
:101A20002C833D83AC81BD81139798F7411115C07C
:101A3000FF2309F45AC1F1504AE02C813D81233043
:101A4000310558F60AC0961349C12C813D812330D7
:101A5000310508F440C18FE04FE0643018F0660FA4
:101A6000660F695030E1439FA00111245F2B482B82
:101A700070E0762F66277295707F642B752BD601E8
:101A800013966D937C93149715C1F801828093800F
:101A90008E0C9F1CFA01D40117960C90179702C068
:101AA000F695E7950A94E2F7EC83FD8314966C9023
:101AB000FFE16F120FC0EC81FD81D6011196ED930D
:101AC000FC931297D40114968C9114978F7E1496E0
:101AD0008C9342C0D12C262D30E0C9010D2C02C0C0
:101AE000969587950A94E2F780FF03C08D2DD12C3F
:101AF00001C085E08F5F853010F4D82EEECF6C8169
:101B00007D81C1010E940F0A882351F081E090E09D
:101B10000D2C01C0880F0A94EAF78629F40184830A
:101B2000D801DD2091F01296ED91FC911397EE0D06
:101B3000FF1DDA9481E090E001C0880FDA94EAF7A3
:101B4000809594818923848307C01496ED91FC913C
:101B50001597EA0DFB1D7082D8011496ED91FC914A
:101B60001597EA0DFB1D8081813009F0A3C02C81FF
:101B70003D8187C0D8011296ED91FC911397EE0D2F
:101B8000FF1D9A01078002C0369527950A94E2F757
:101B90002C833D83958092942FE0922235E093161A
:101BA00091F06C817D81C1010E940F0A811104C0F6
:101BB0009394D6017C9209C0911003C0F601708203
:101BC00004C09A9402C094E0992ED8011296ED9127
:101BD000FC911397EE0DFF1D85818F708583129602
:101BE000ED91FC911397EE0DFF1D929480EF9822DA
:101BF00038C0D8011296ED91FC911397EE0DFF1DA0
:101C00009A01078002C0369527950A94E2F72C8343
:101C10003D8385818F70982E91F0B901C1010E949A
:101C20000F0A811104C09A94D6017C920AC0B7E0D1
:101C30009B1203C0F601708204C0939402C09924E1
:101C40009394D8011296ED91FC911397EE0DFF1D20
:101C50008581807F85831296ED91FC911397EE0D1F
:101C6000FF1D8581982A95821496ED91FC91159718
:101C7000EA0DFB1D2C813D812183328380818130DF
:101C8000C9F4211542E0340728F02F5F31402C833E
:101C90003D8307C0C201AC81BD818A1B9B0B8C8335
:101CA0009D832C813D812B30310520F035E430833C
:101CB00001C0FFCF4FEF241A340A55E0A50EB11C26
:101CC00088E0E80EF11C26CD82E0809377380FC0C3
:101CD000B3E0B9830CC04FE08FE0BFCE4FE0AC81E2
:101CE000BD81139708F03ECEB8CE40E0B6CE8981D4
:101CF0002596CDBFDEBFDF91CF911F910F91FF9051
:101D0000EF90DF90CF90BF90AF909F908F907F909B
:101D10006F905F904F903F902F900895CF93DF93F7
:101D20000097E1F1DC01ED91FC91A081B18160E0CF
:101D300070E040E050E020E030E04A175B0799F0A7
:101D4000EC01EA81FB81E60FF71FC081D18102809F
:101D5000F381E02DEC2BFD2B2E2B3F2B4F5F5F4FA4
:101D6000685F7F4FEACF21153105D1F08091773838
:101D7000811108C0209322063093230681E08093CE
:101D800077380AC080912206822B809322068091A8
:101D90002306832B8093230680E003C08BE001C0E1
:101DA00082E0DF91CF910895009731F08093F3386E
:101DB0009093F43880E008958BE0089561157105E3
:101DC00091F1009781F120917738222371F124302D
:101DD00071F18093F1389093F23860937538709375
:101DE000763820EC20931806DC01ED91FC912281DD
:101DF000203421F420911806206205C0203841F4D7
:101E00002091180628622093180610921E0613C00F
:101E1000213879F42091180628622093180626E8C4
:101E200020931E0608C08BE0089583E0089581E0AA
:101E3000089582E0089510920006DC01ED91FC9176
:101E40008481803108F080E18093030681E08093F3
:101E50000B0680930A0680935A38109278381092B5
:101E600079380E94970A81110BC084E080937738FB
:101E700080917838909179380E94CA0A80E008955C
:101E800082E08093773808950097C9F0DC01ED91E6
:101E9000FC911197208131812617370790F045E09A
:101EA000469F9001479F300D11241496ED91FC91AF
:101EB0001597E20FF31F81E0808380E008958BE0A7
:101EC000089582E00895FC01892BD1F1A081B181B0
:101ED0008D919C91119786179707A0F112969C916E
:101EE0000480F581E02D903459F485E0869FD0017F
:101EF000879FB00D1124AE0FBF1F84E392E00DC089
:101F00009058923080F485E0869FD001879FB00D75
:101F10001124AE0FBF1F87E695E013968D939C9317
:101F2000149780E001C082E095E0969F9001979F12
:101F3000300D1124E20FF31F908192609083089579
:101F40008BE0089582E008951092000640911006FB
:101F50005091110680917838909179389C01220F28
:101F6000331FE091F338F091F438E20FF31F408310
:101F70005183019680937838909379380E94970A1C
:101F8000811109C084E080937738809178389091EE
:101F900079380C94CA0AE0917538F0917638099432
:101FA00097FB072E16F4009407D077FD09D00E9406
:101FB000E40F07FC05D03EF4909581959F4F08955E
:101FC000709561957F4F0895AA1BBB1B51E107C017
:101FD000AA1FBB1FA617B70710F0A61BB70B881FB9
:101FE000991F5A95A9F780959095BC01CD01089548
:101FF0008F929F92AF92BF92CF92DF92EF92FF9219
:10200000CF93DF93EC01688179818A819B8161158F
:1020100071058105910521F464E279ED8BE597E086
:102020002DE133EF41E050E00E94541049015A0184
:102030009B01AC01A7EAB1E40E9473106B017C0123
:10204000ACEEB4EFA50194010E948110DC01CB013C
:102050008C0D9D1DAE1DBF1DB7FF03C00197A109CB
:10206000B04888839983AA83BB839F77DF91CF9100
:10207000FF90EF90DF90CF90BF90AF909F908F90A8
:1020800008950E94F80F089580E098E30E94F80FE9
:102090000895A0E0B0E08093003890930138A093B9
:1020A0000238B09303380895052E97FB1EF4009470
:1020B0000E946B1057FD07D00E94861007FC03D0CA
:1020C0004EF40C946B1050954095309521953F4FF0
:1020D0004F4F5F4F089590958095709561957F4F14
:1020E0008F4F9F4F08950E94A810A59F900DB49FF9
:1020F000900DA49F800D911D11240895B7FF0C949D
:1021000073100E947310821B930B0895A1E21A2E84
:10211000AA1BBB1BFD010DC0AA1FBB1FEE1FFF1F8B
:10212000A217B307E407F50720F0A21BB30BE40BDB
:10213000F50B661F771F881F991F1A9469F7609522
:102140007095809590959B01AC01BD01CF010895DC
:10215000A29FB001B39FC001A39F700D811D1124E8
:10216000911DB29F700D811D1124911D0895F89449
:02217000FFCF9F
:0E21720007001300350090003F1C0B05030111
:1021800001000000059A381C38C7380D38140100CA
:1021900014010014010014010014010005000400E2
:1021A00005001405140154382C38A4380000200010
:1021B00014020005000008001402000500000400DD
:1021C00014020005000002001402000500000100D6
:0C21D00014020005050080311001010020
:00000001FF
